:1000000013C037C036C035C034C033C032C031C071
:1000100030C084C02EC099C1C2C12BC02AC029C023
:1000200028C027C026C0A10111241FBECFE5D4E0FF
:10003000DEBFCDBF10E0A0E6B0E0E4EDF4E002C02A
:1000400005900D92A036B107D9F710E0A0E6B0E018
:1000500001C01D92AB3AB107E1F710E0C8E2D0E071
:1000600003C02297FE0130D2C632D107D1F7A1D00A
:100070002FC2C6CF882341F4662319F0A998A89A05
:100080000AC0A898A99A07C0662319F0AB98AA9A43
:1000900002C0AA98AB9A80E29EE40197F1F7089516
:1000A00080E060E0E7DF81E060E0E4DF80E061E0E5
:1000B000E1DF81E061E0DEDFC298C09880E197E295
:1000C000FC013197F1F79698FC013197F1F7C09A4E
:1000D000FC013197F1F7969A0197F1F7089581E0C5
:1000E00060E0C8DF80E060E0C5DF81E061E0C2DFA2
:1000F00080E061E0BFDFC298969880E197E2FC0162
:100100003197F1F7C098FC013197F1F7969AFC010D
:100110003197F1F7C09A0197F1F708951F920F9266
:100120000FB60F9211242F933F934F938F939F936A
:100130002091A8003091A9008EEF82BF9091A70076
:100140009F5F9093A700923250F036FD06C035FFB6
:1001500004C03093A6002093A50020E030E0409139
:10016000AA0080B3842787FF16C0842F80958093D0
:10017000AA009B3018F420E030E005C021153105BD
:1001800011F0973140F036FD02C0220F331F87FF78
:1001900021601092A7003093A9002093A8009F919E
:1001A0008F914F913F912F910F900FBE0F901F9005
:1001B0001895EF92FF920F931F93CF93DF9388EEE2
:1001C00093E028EC30E0F9013197F1F70197D9F786
:1001D00084E083BF81E089BF8FEF84BB15BA8F981D
:1001E0008E9A979A87E087BB82E88FBD89E18EBDA2
:1001F00080E09FE097BD86BD1BBC1ABC70DF6FDF3F
:100200004FDF7894C6B5D7B564E0D695C7956A95A3
:10021000E1F700E61AEE50E2E52E5EE4F52EF894E2
:100220002091A5003091A6001092A6001092A50082
:1002300078942115310509F47BC0C901809590950A
:10024000880F892F881F990B9195807490702F7358
:100250003070822B932B8032910509F44DC081328E
:10026000910550F480319105D1F08131910529F14A
:100270000D9709F05DC04FC08433910509F44BC060
:100280008533910520F4819709F052C024C085334D
:10029000910509F44AC0C69709F04AC041C0AD9A19
:1002A0008FB58F778FBDC198C8010197F1F78FB5D2
:1002B0008F778FBDC19A13DFB2CFAD988FB58F778F
:1002C0008FBDC198C8010197F1F78FB58F778FBDAA
:1002D000C19AE6DEA4CF0FB407FE2AC02AB53BB50B
:1002E00086B597B58C0F9D1F2817390708F58AB575
:1002F0009BB58C0F9D1F0CC00FB407FE19C08AB5AB
:100300009BB5C817D907A0F48AB59BB58C1B9D0B6C
:100310009BBD8ABD0DC08FB58F778FBDC19808C0BA
:100320008FB58F778FBDC19A03C08FB580688FBDA1
:10033000C7010197F1F7A898A998AA98AB98C29A13
:100340006ECF8CE090E050D008951F920F920FB6C0
:100350000F9211242F938F939F93EF93FF939BB151
:100360002CB1E091A200EF5FEF718091A300E8173C
:1003700011F482E008C0892F8871E093A200F0E0B8
:10038000E058FF4F20838093A400FF91EF919F914D
:100390008F912F910F900FBE0F901F9018951F9265
:1003A0000F920FB60F9211248F939F93EF93FF93A9
:1003B0009091A0008091A100981761F0E091A100B8
:1003C000EF5FEF71E093A100F0E0E05AFF4F808112
:1003D0008CB901C05598FF91EF919F918F910F902B
:1003E0000FBE0F901F9018951092A0001092A100C0
:1003F0001092A2001092A30090BD89B988E98AB931
:1004000086E880BD08959091A2008091A30098177E
:1004100019F420E031E012C0E091A300EF5FEF712A
:10042000E093A300F0E0E058FF4F30812091A4005A
:10043000922F80E0AC01430F511D9A01C90108952C
:10044000282F9091A0009F5F9F718091A100981725
:10045000E1F3E92FF0E0E05AFF4F20839093A000F2
:10046000559A0895DC0111C09091A0009F5F9F7183
:100470008091A1009817E1F31196E92FF0E0E05A7E
:10048000FF4F20839093A000559A2C91222361F76F
:100490000895AC0110C02091A0002F5F2F718091B2
:1004A000A1002817E1F3E22FF0E0E05AFF4F90831C
:1004B0002093A000559AFA014F5F5F4F94919923C2
:1004C00051F70895EE0FFF1F0590F491E02D099468
:0404D000F894FFCFCE
:00000001FF
